{
  "contractName": "TodoList",
  "abi": [
    {
      "inputs": [],
      "name": "taskCount",
      "outputs": [
        {
          "internalType": "uint256",
          "name": "",
          "type": "uint256"
        }
      ],
      "stateMutability": "view",
      "type": "function",
      "constant": true
    },
    {
      "inputs": [
        {
          "internalType": "uint256",
          "name": "",
          "type": "uint256"
        }
      ],
      "name": "tasks",
      "outputs": [
        {
          "internalType": "uint256",
          "name": "id",
          "type": "uint256"
        },
        {
          "internalType": "string",
          "name": "content",
          "type": "string"
        },
        {
          "internalType": "bool",
          "name": "completed",
          "type": "bool"
        }
      ],
      "stateMutability": "view",
      "type": "function",
      "constant": true
    }
  ],
  "bytecode": "0x60806040526000805534801561001457600080fd5b5061036a806100246000396000f3fe608060405234801561001057600080fd5b50600436106100365760003560e01c80638d9776721461003b578063b6cb58a51461006d575b600080fd5b6100556004803603810190610050919061018b565b61008b565b6040516100649392919061027b565b60405180910390f35b61007561014a565b60405161008291906102b9565b60405180910390f35b60016020528060005260406000206000915090508060000154908060010180546100b490610303565b80601f01602080910402602001604051908101604052809291908181526020018280546100e090610303565b801561012d5780601f106101025761010080835404028352916020019161012d565b820191906000526020600020905b81548152906001019060200180831161011057829003601f168201915b5050505050908060020160009054906101000a900460ff16905083565b60005481565b600080fd5b6000819050919050565b61016881610155565b811461017357600080fd5b50565b6000813590506101858161015f565b92915050565b6000602082840312156101a1576101a0610150565b5b60006101af84828501610176565b91505092915050565b6101c181610155565b82525050565b600081519050919050565b600082825260208201905092915050565b60005b838110156102015780820151818401526020810190506101e6565b83811115610210576000848401525b50505050565b6000601f19601f8301169050919050565b6000610232826101c7565b61023c81856101d2565b935061024c8185602086016101e3565b61025581610216565b840191505092915050565b60008115159050919050565b61027581610260565b82525050565b600060608201905061029060008301866101b8565b81810360208301526102a28185610227565b90506102b1604083018461026c565b949350505050565b60006020820190506102ce60008301846101b8565b92915050565b7f4e487b7100000000000000000000000000000000000000000000000000000000600052602260045260246000fd5b6000600282049050600182168061031b57607f821691505b60208210810361032e5761032d6102d4565b5b5091905056fea26469706673582212201309768ea3c6647a55c3c1462aa3e6644b084dd6593a3a36d25f07cccea42d2564736f6c634300080f0033",
  "immutableReferences": {},
  "source": "// SPDX-License-Identifier: MIT\npragma solidity >=0.4.22 <0.9.0;\n\n//contract declaration\ncontract TodoList {\n    /*state variables*/\n    //counts number of tasks.\n    uint public taskCount = 0; \n\n    //create structure for tasks\n    struct Task {\n        uint id; \n        string content; \n        bool completed;\n    }\n\n    //map the id to a task, since you want to be able to look them up\n    //you want the public to see these tasks => public keyword.\n    mapping(uint => Task) public tasks; \n\n}",
  "sourcePath": "/Users/marinapulini-franks/Documents/blockchain_practice/eth-todo-list/contracts/TodoList.sol",
  "compiler": {
    "name": "solc",
    "version": "0.8.15+commit.e14f2714.Emscripten.clang"
  },
  "schemaVersion": "3.4.8",
  "updatedAt": "2022-07-08T19:56:43.158Z",
  "networkType": "ethereum",
  "devdoc": {
    "kind": "dev",
    "methods": {},
    "version": 1
  },
  "userdoc": {
    "kind": "user",
    "methods": {},
    "version": 1
  }
}