{
    "_format": "hh-sol-artifact-1",
    "contractName": "MyEpicNFT",
    "sourceName": "contracts/MyEpicNFT.sol",
    "abi": [
        {
            "inputs": [],
            "stateMutability": "nonpayable",
            "type": "constructor"
        },
        {
            "anonymous": false,
            "inputs": [
                {
                    "indexed": true,
                    "internalType": "address",
                    "name": "owner",
                    "type": "address"
                },
                {
                    "indexed": true,
                    "internalType": "address",
                    "name": "approved",
                    "type": "address"
                },
                {
                    "indexed": true,
                    "internalType": "uint256",
                    "name": "tokenId",
                    "type": "uint256"
                }
            ],
            "name": "Approval",
            "type": "event"
        },
        {
            "anonymous": false,
            "inputs": [
                {
                    "indexed": true,
                    "internalType": "address",
                    "name": "owner",
                    "type": "address"
                },
                {
                    "indexed": true,
                    "internalType": "address",
                    "name": "operator",
                    "type": "address"
                },
                {
                    "indexed": false,
                    "internalType": "bool",
                    "name": "approved",
                    "type": "bool"
                }
            ],
            "name": "ApprovalForAll",
            "type": "event"
        },
        {
            "anonymous": false,
            "inputs": [
                {
                    "indexed": true,
                    "internalType": "address",
                    "name": "from",
                    "type": "address"
                },
                {
                    "indexed": true,
                    "internalType": "address",
                    "name": "to",
                    "type": "address"
                },
                {
                    "indexed": true,
                    "internalType": "uint256",
                    "name": "tokenId",
                    "type": "uint256"
                }
            ],
            "name": "Transfer",
            "type": "event"
        },
        {
            "inputs": [
                {
                    "internalType": "address",
                    "name": "to",
                    "type": "address"
                },
                {
                    "internalType": "uint256",
                    "name": "tokenId",
                    "type": "uint256"
                }
            ],
            "name": "approve",
            "outputs": [],
            "stateMutability": "nonpayable",
            "type": "function"
        },
        {
            "inputs": [
                {
                    "internalType": "address",
                    "name": "owner",
                    "type": "address"
                }
            ],
            "name": "balanceOf",
            "outputs": [
                {
                    "internalType": "uint256",
                    "name": "",
                    "type": "uint256"
                }
            ],
            "stateMutability": "view",
            "type": "function"
        },
        {
            "inputs": [
                {
                    "internalType": "uint256",
                    "name": "tokenId",
                    "type": "uint256"
                }
            ],
            "name": "getApproved",
            "outputs": [
                {
                    "internalType": "address",
                    "name": "",
                    "type": "address"
                }
            ],
            "stateMutability": "view",
            "type": "function"
        },
        {
            "inputs": [
                {
                    "internalType": "address",
                    "name": "owner",
                    "type": "address"
                },
                {
                    "internalType": "address",
                    "name": "operator",
                    "type": "address"
                }
            ],
            "name": "isApprovedForAll",
            "outputs": [
                {
                    "internalType": "bool",
                    "name": "",
                    "type": "bool"
                }
            ],
            "stateMutability": "view",
            "type": "function"
        },
        {
            "inputs": [],
            "name": "makeAnEpicNFT",
            "outputs": [],
            "stateMutability": "nonpayable",
            "type": "function"
        },
        {
            "inputs": [],
            "name": "name",
            "outputs": [
                {
                    "internalType": "string",
                    "name": "",
                    "type": "string"
                }
            ],
            "stateMutability": "view",
            "type": "function"
        },
        {
            "inputs": [
                {
                    "internalType": "uint256",
                    "name": "tokenId",
                    "type": "uint256"
                }
            ],
            "name": "ownerOf",
            "outputs": [
                {
                    "internalType": "address",
                    "name": "",
                    "type": "address"
                }
            ],
            "stateMutability": "view",
            "type": "function"
        },
        {
            "inputs": [
                {
                    "internalType": "uint256",
                    "name": "tokenId",
                    "type": "uint256"
                }
            ],
            "name": "pickRandomFirstWord",
            "outputs": [
                {
                    "internalType": "string",
                    "name": "",
                    "type": "string"
                }
            ],
            "stateMutability": "view",
            "type": "function"
        },
        {
            "inputs": [
                {
                    "internalType": "uint256",
                    "name": "tokenId",
                    "type": "uint256"
                }
            ],
            "name": "pickRandomSecondWord",
            "outputs": [
                {
                    "internalType": "string",
                    "name": "",
                    "type": "string"
                }
            ],
            "stateMutability": "view",
            "type": "function"
        },
        {
            "inputs": [
                {
                    "internalType": "uint256",
                    "name": "tokenId",
                    "type": "uint256"
                }
            ],
            "name": "pickRandomThirdWord",
            "outputs": [
                {
                    "internalType": "string",
                    "name": "",
                    "type": "string"
                }
            ],
            "stateMutability": "view",
            "type": "function"
        },
        {
            "inputs": [
                {
                    "internalType": "address",
                    "name": "from",
                    "type": "address"
                },
                {
                    "internalType": "address",
                    "name": "to",
                    "type": "address"
                },
                {
                    "internalType": "uint256",
                    "name": "tokenId",
                    "type": "uint256"
                }
            ],
            "name": "safeTransferFrom",
            "outputs": [],
            "stateMutability": "nonpayable",
            "type": "function"
        },
        {
            "inputs": [
                {
                    "internalType": "address",
                    "name": "from",
                    "type": "address"
                },
                {
                    "internalType": "address",
                    "name": "to",
                    "type": "address"
                },
                {
                    "internalType": "uint256",
                    "name": "tokenId",
                    "type": "uint256"
                },
                {
                    "internalType": "bytes",
                    "name": "data",
                    "type": "bytes"
                }
            ],
            "name": "safeTransferFrom",
            "outputs": [],
            "stateMutability": "nonpayable",
            "type": "function"
        },
        {
            "inputs": [
                {
                    "internalType": "address",
                    "name": "operator",
                    "type": "address"
                },
                {
                    "internalType": "bool",
                    "name": "approved",
                    "type": "bool"
                }
            ],
            "name": "setApprovalForAll",
            "outputs": [],
            "stateMutability": "nonpayable",
            "type": "function"
        },
        {
            "inputs": [
                {
                    "internalType": "bytes4",
                    "name": "interfaceId",
                    "type": "bytes4"
                }
            ],
            "name": "supportsInterface",
            "outputs": [
                {
                    "internalType": "bool",
                    "name": "",
                    "type": "bool"
                }
            ],
            "stateMutability": "view",
            "type": "function"
        },
        {
            "inputs": [],
            "name": "symbol",
            "outputs": [
                {
                    "internalType": "string",
                    "name": "",
                    "type": "string"
                }
            ],
            "stateMutability": "view",
            "type": "function"
        },
        {
            "inputs": [
                {
                    "internalType": "uint256",
                    "name": "tokenId",
                    "type": "uint256"
                }
            ],
            "name": "tokenURI",
            "outputs": [
                {
                    "internalType": "string",
                    "name": "",
                    "type": "string"
                }
            ],
            "stateMutability": "view",
            "type": "function"
        },
        {
            "inputs": [
                {
                    "internalType": "address",
                    "name": "from",
                    "type": "address"
                },
                {
                    "internalType": "address",
                    "name": "to",
                    "type": "address"
                },
                {
                    "internalType": "uint256",
                    "name": "tokenId",
                    "type": "uint256"
                }
            ],
            "name": "transferFrom",
            "outputs": [],
            "stateMutability": "nonpayable",
            "type": "function"
        }
    ],
    "bytecode": "0x608060405260405180610160016040528061012f815260200162003fc661012f913960089080519060200190620000389291906200067e565b506040518060c001604052806040518060400160405280600681526020017f4a616c656269000000000000000000000000000000000000000000000000000081525081526020016040518060400160405280600581526020017f47756c616200000000000000000000000000000000000000000000000000000081525081526020016040518060400160405280600781526020017f4e7574656c6c610000000000000000000000000000000000000000000000000081525081526020016040518060400160405280600681526020017f43687572726f000000000000000000000000000000000000000000000000000081525081526020016040518060400160405280600681526020017f43616e6f6c69000000000000000000000000000000000000000000000000000081525081526020016040518060400160405280600681526020017f47656c61746f00000000000000000000000000000000000000000000000000008152508152506009906006620001b69291906200070f565b506040518060c001604052806040518060400160405280600481526020017f546178690000000000000000000000000000000000000000000000000000000081525081526020016040518060400160405280600581526020017f526164617200000000000000000000000000000000000000000000000000000081525081526020016040518060400160405280600c81526020017f4165726f6e6175746963616c000000000000000000000000000000000000000081525081526020016040518060400160405280600881526020017f416972626f726e6500000000000000000000000000000000000000000000000081525081526020016040518060400160405280600681526020017f52756e776179000000000000000000000000000000000000000000000000000081525081526020016040518060400160405280600881526020017f416c746974756465000000000000000000000000000000000000000000000000815250815250600a906006620003349291906200070f565b506040518060c001604052806040518060400160405280600881526020017f486172647461696c00000000000000000000000000000000000000000000000081525081526020016040518060400160405280600681526020017f536c69636b73000000000000000000000000000000000000000000000000000081525081526020016040518060400160405280600781526020017f53746f707069650000000000000000000000000000000000000000000000000081525081526020016040518060400160405280600981526020017f5377696e672d41726d000000000000000000000000000000000000000000000081525081526020016040518060400160405280600381526020017f4c6964000000000000000000000000000000000000000000000000000000000081525081526020016040518060400160405280600481526020017f4170657800000000000000000000000000000000000000000000000000000000815250815250600b906006620004b29291906200070f565b50348015620004c057600080fd5b506040518060400160405280600981526020017f5371756172654e465400000000000000000000000000000000000000000000008152506040518060400160405280600681526020017f53515541524500000000000000000000000000000000000000000000000000008152508160009080519060200190620005459291906200067e565b5080600190805190602001906200055e9291906200067e565b505050620005ac6040518060400160405280601e81526020017f54686973206973206d79204e465420636f6e74726163742e20576f6168210000815250620005b260201b6200103c1760201c565b62000930565b6200065281604051602401620005c9919062000844565b6040516020818303038152906040527f41304fac000000000000000000000000000000000000000000000000000000007bffffffffffffffffffffffffffffffffffffffffffffffffffffffff19166020820180517bffffffffffffffffffffffffffffffffffffffffffffffffffffffff83818316178352505050506200065560201b60201c565b50565b60008151905060006a636f6e736f6c652e6c6f679050602083016000808483855afa5050505050565b8280546200068c90620008ba565b90600052602060002090601f016020900481019282620006b05760008555620006fc565b82601f10620006cb57805160ff1916838001178555620006fc565b82800160010185558215620006fc579182015b82811115620006fb578251825591602001919060010190620006de565b5b5090506200070b919062000776565b5090565b82805482825590600052602060002090810192821562000763579160200282015b8281111562000762578251829080519060200190620007519291906200067e565b509160200191906001019062000730565b5b50905062000772919062000795565b5090565b5b808211156200079157600081600090555060010162000777565b5090565b5b80821115620007b95760008181620007af9190620007bd565b5060010162000796565b5090565b508054620007cb90620008ba565b6000825580601f10620007df575062000800565b601f016020900490600052602060002090810190620007ff919062000776565b5b50565b6000620008108262000868565b6200081c818562000873565b93506200082e81856020860162000884565b62000839816200091f565b840191505092915050565b6000602082019050818103600083015262000860818462000803565b905092915050565b600081519050919050565b600082825260208201905092915050565b60005b83811015620008a457808201518184015260208101905062000887565b83811115620008b4576000848401525b50505050565b60006002820490506001821680620008d357607f821691505b60208210811415620008ea57620008e9620008f0565b5b50919050565b7f4e487b7100000000000000000000000000000000000000000000000000000000600052602260045260246000fd5b6000601f19601f8301169050919050565b61368680620009406000396000f3fe608060405234801561001057600080fd5b506004361061010b5760003560e01c806370a08231116100a2578063b88d4fde11610071578063b88d4fde146102dc578063c575757a146102f8578063c87b56dd14610328578063de9d132f14610358578063e985e9c5146103625761010b565b806370a082311461024257806395d89b4114610272578063a22cb46514610290578063b187301f146102ac5761010b565b806323b872dd116100de57806323b872dd146101aa5780632de38d68146101c657806342842e0e146101f65780636352211e146102125761010b565b806301ffc9a71461011057806306fdde0314610140578063081812fc1461015e578063095ea7b31461018e575b600080fd5b61012a6004803603810190610125919061242b565b610392565b6040516101379190612a80565b60405180910390f35b610148610474565b6040516101559190612a9b565b60405180910390f35b6101786004803603810190610173919061247d565b610506565b6040516101859190612a19565b60405180910390f35b6101a860048036038101906101a391906123ef565b61054c565b005b6101c460048036038101906101bf91906122e9565b610664565b005b6101e060048036038101906101db919061247d565b6106c4565b6040516101ed9190612a9b565b60405180910390f35b610210600480360381019061020b91906122e9565b6107e2565b005b61022c6004803603810190610227919061247d565b610802565b6040516102399190612a19565b60405180910390f35b61025c60048036038101906102579190612284565b6108b4565b6040516102699190612c7b565b60405180910390f35b61027a61096c565b6040516102879190612a9b565b60405180910390f35b6102aa60048036038101906102a591906123b3565b6109fe565b005b6102c660048036038101906102c1919061247d565b610a14565b6040516102d39190612a9b565b60405180910390f35b6102f660048036038101906102f19190612338565b610b32565b005b610312600480360381019061030d919061247d565b610b94565b60405161031f9190612a9b565b60405180910390f35b610342600480360381019061033d919061247d565b610cb2565b60405161034f9190612a9b565b60405180910390f35b610360610dc5565b005b61037c600480360381019061037791906122ad565b610fa8565b6040516103899190612a80565b60405180910390f35b60007f80ac58cd000000000000000000000000000000000000000000000000000000007bffffffffffffffffffffffffffffffffffffffffffffffffffffffff1916827bffffffffffffffffffffffffffffffffffffffffffffffffffffffff1916148061045d57507f5b5e139f000000000000000000000000000000000000000000000000000000007bffffffffffffffffffffffffffffffffffffffffffffffffffffffff1916827bffffffffffffffffffffffffffffffffffffffffffffffffffffffff1916145b8061046d575061046c826110d5565b5b9050919050565b60606000805461048390612f0f565b80601f01602080910402602001604051908101604052809291908181526020018280546104af90612f0f565b80156104fc5780601f106104d1576101008083540402835291602001916104fc565b820191906000526020600020905b8154815290600101906020018083116104df57829003601f168201915b5050505050905090565b60006105118261113f565b6004600083815260200190815260200160002060009054906101000a900473ffffffffffffffffffffffffffffffffffffffff169050919050565b600061055782610802565b90508073ffffffffffffffffffffffffffffffffffffffff168373ffffffffffffffffffffffffffffffffffffffff1614156105c8576040517f08c379a00000000000000000000000000000000000000000000000000000000081526004016105bf90612c3b565b60405180910390fd5b8073ffffffffffffffffffffffffffffffffffffffff166105e761118a565b73ffffffffffffffffffffffffffffffffffffffff16148061061657506106158161061061118a565b610fa8565b5b610655576040517f08c379a000000000000000000000000000000000000000000000000000000000815260040161064c90612bdb565b60405180910390fd5b61065f8383611192565b505050565b61067561066f61118a565b8261124b565b6106b4576040517f08c379a00000000000000000000000000000000000000000000000000000000081526004016106ab90612c5b565b60405180910390fd5b6106bf8383836112e0565b505050565b606060006106f86106d484611547565b6040516020016106e491906129d5565b6040516020818303038152906040526116f4565b90506009805490508161070b9190612fbb565b905060098181548110610747577f4e487b7100000000000000000000000000000000000000000000000000000000600052603260045260246000fd5b90600052602060002001805461075c90612f0f565b80601f016020809104026020016040519081016040528092919081815260200182805461078890612f0f565b80156107d55780601f106107aa576101008083540402835291602001916107d5565b820191906000526020600020905b8154815290600101906020018083116107b857829003601f168201915b5050505050915050919050565b6107fd83838360405180602001604052806000815250610b32565b505050565b6000806002600084815260200190815260200160002060009054906101000a900473ffffffffffffffffffffffffffffffffffffffff169050600073ffffffffffffffffffffffffffffffffffffffff168173ffffffffffffffffffffffffffffffffffffffff1614156108ab576040517f08c379a00000000000000000000000000000000000000000000000000000000081526004016108a290612c1b565b60405180910390fd5b80915050919050565b60008073ffffffffffffffffffffffffffffffffffffffff168273ffffffffffffffffffffffffffffffffffffffff161415610925576040517f08c379a000000000000000000000000000000000000000000000000000000000815260040161091c90612b9b565b60405180910390fd5b600360008373ffffffffffffffffffffffffffffffffffffffff1673ffffffffffffffffffffffffffffffffffffffff168152602001908152602001600020549050919050565b60606001805461097b90612f0f565b80601f01602080910402602001604051908101604052809291908181526020018280546109a790612f0f565b80156109f45780601f106109c9576101008083540402835291602001916109f4565b820191906000526020600020905b8154815290600101906020018083116109d757829003601f168201915b5050505050905090565b610a10610a0961118a565b8383611727565b5050565b60606000610a48610a2484611547565b604051602001610a34919061296e565b6040516020818303038152906040526116f4565b9050600a8054905081610a5b9190612fbb565b9050600a8181548110610a97577f4e487b7100000000000000000000000000000000000000000000000000000000600052603260045260246000fd5b906000526020600020018054610aac90612f0f565b80601f0160208091040260200160405190810160405280929190818152602001828054610ad890612f0f565b8015610b255780601f10610afa57610100808354040283529160200191610b25565b820191906000526020600020905b815481529060010190602001808311610b0857829003601f168201915b5050505050915050919050565b610b43610b3d61118a565b8361124b565b610b82576040517f08c379a0000000000000000000000000000000000000000000000000000000008152600401610b7990612c5b565b60405180910390fd5b610b8e84848484611894565b50505050565b60606000610bc8610ba484611547565b604051602001610bb4919061294c565b6040516020818303038152906040526116f4565b9050600b8054905081610bdb9190612fbb565b9050600b8181548110610c17577f4e487b7100000000000000000000000000000000000000000000000000000000600052603260045260246000fd5b906000526020600020018054610c2c90612f0f565b80601f0160208091040260200160405190810160405280929190818152602001828054610c5890612f0f565b8015610ca55780601f10610c7a57610100808354040283529160200191610ca5565b820191906000526020600020905b815481529060010190602001808311610c8857829003601f168201915b5050505050915050919050565b6060610cbd8261113f565b6000600660008481526020019081526020016000208054610cdd90612f0f565b80601f0160208091040260200160405190810160405280929190818152602001828054610d0990612f0f565b8015610d565780601f10610d2b57610100808354040283529160200191610d56565b820191906000526020600020905b815481529060010190602001808311610d3957829003601f168201915b505050505090506000610d676118f0565b9050600081511415610d7d578192505050610dc0565b600082511115610db2578082604051602001610d9a9291906128c8565b60405160208183030381529060405292505050610dc0565b610dbb84611907565b925050505b919050565b6000610dd1600761196f565b90506000610dde826106c4565b90506000610deb83610a14565b90506000610df884610b94565b90506000838383604051602001610e11939291906128ec565b60405160208183030381529060405290506000600882604051602001610e3892919061291d565b60405160208183030381529060405290506000610e7d83610e588461197d565b604051602001610e69929190612990565b60405160208183030381529060405261197d565b9050600081604051602001610e9291906129f7565b6040516020818303038152906040529050610ee16040518060400160405280601581526020017f0a2d2d2d2d2d2d2d2d2d2d2d2d2d2d2d2d2d2d2d2d000000000000000000000081525061103c565b610eea8361103c565b610f286040518060400160405280601581526020017f2d2d2d2d2d2d2d2d2d2d2d2d2d2d2d2d2d2d2d2d0a000000000000000000000081525061103c565b610f323389611b3b565b610f71886040518060400160405280600481526020017f626c616800000000000000000000000000000000000000000000000000000000815250611b59565b610f7b6007611bcd565b610f9e6040518060600160405280602581526020016135ec602591398933611be3565b5050505050505050565b6000600560008473ffffffffffffffffffffffffffffffffffffffff1673ffffffffffffffffffffffffffffffffffffffff16815260200190815260200160002060008373ffffffffffffffffffffffffffffffffffffffff1673ffffffffffffffffffffffffffffffffffffffff16815260200190815260200160002060009054906101000a900460ff16905092915050565b6110d2816040516024016110509190612a9b565b6040516020818303038152906040527f41304fac000000000000000000000000000000000000000000000000000000007bffffffffffffffffffffffffffffffffffffffffffffffffffffffff19166020820180517bffffffffffffffffffffffffffffffffffffffffffffffffffffffff8381831617835250505050611c82565b50565b60007f01ffc9a7000000000000000000000000000000000000000000000000000000007bffffffffffffffffffffffffffffffffffffffffffffffffffffffff1916827bffffffffffffffffffffffffffffffffffffffffffffffffffffffff1916149050919050565b61114881611cab565b611187576040517f08c379a000000000000000000000000000000000000000000000000000000000815260040161117e90612c1b565b60405180910390fd5b50565b600033905090565b816004600083815260200190815260200160002060006101000a81548173ffffffffffffffffffffffffffffffffffffffff021916908373ffffffffffffffffffffffffffffffffffffffff160217905550808273ffffffffffffffffffffffffffffffffffffffff1661120583610802565b73ffffffffffffffffffffffffffffffffffffffff167f8c5be1e5ebec7d5bd14f71427d1e84f3dd0314c0f7b2291e5b200ac8c7c3b92560405160405180910390a45050565b60008061125783610802565b90508073ffffffffffffffffffffffffffffffffffffffff168473ffffffffffffffffffffffffffffffffffffffff16148061129957506112988185610fa8565b5b806112d757508373ffffffffffffffffffffffffffffffffffffffff166112bf84610506565b73ffffffffffffffffffffffffffffffffffffffff16145b91505092915050565b8273ffffffffffffffffffffffffffffffffffffffff1661130082610802565b73ffffffffffffffffffffffffffffffffffffffff1614611356576040517f08c379a000000000000000000000000000000000000000000000000000000000815260040161134d90612b1b565b60405180910390fd5b600073ffffffffffffffffffffffffffffffffffffffff168273ffffffffffffffffffffffffffffffffffffffff1614156113c6576040517f08c379a00000000000000000000000000000000000000000000000000000000081526004016113bd90612b5b565b60405180910390fd5b6113d1838383611d17565b6113dc600082611192565b6001600360008573ffffffffffffffffffffffffffffffffffffffff1673ffffffffffffffffffffffffffffffffffffffff168152602001908152602001600020600082825461142c9190612e25565b925050819055506001600360008473ffffffffffffffffffffffffffffffffffffffff1673ffffffffffffffffffffffffffffffffffffffff16815260200190815260200160002060008282546114839190612d44565b92505081905550816002600083815260200190815260200160002060006101000a81548173ffffffffffffffffffffffffffffffffffffffff021916908373ffffffffffffffffffffffffffffffffffffffff160217905550808273ffffffffffffffffffffffffffffffffffffffff168473ffffffffffffffffffffffffffffffffffffffff167fddf252ad1be2c89b69c2b068fc378daa952ba7f163c4a11628f55a4df523b3ef60405160405180910390a4611542838383611d1c565b505050565b6060600082141561158f576040518060400160405280600181526020017f300000000000000000000000000000000000000000000000000000000000000081525090506116ef565b600082905060005b600082146115c15780806115aa90612f72565b915050600a826115ba9190612d9a565b9150611597565b60008167ffffffffffffffff811115611603577f4e487b7100000000000000000000000000000000000000000000000000000000600052604160045260246000fd5b6040519080825280601f01601f1916602001820160405280156116355781602001600182028036833780820191505090505b5090505b600085146116e85760018261164e9190612e25565b9150600a8561165d9190612fbb565b60306116699190612d44565b60f81b8183815181106116a5577f4e487b7100000000000000000000000000000000000000000000000000000000600052603260045260246000fd5b60200101907effffffffffffffffffffffffffffffffffffffffffffffffffffffffffffff1916908160001a905350600a856116e19190612d9a565b9450611639565b8093505050505b919050565b60008160405160200161170791906128b1565b6040516020818303038152906040528051906020012060001c9050919050565b8173ffffffffffffffffffffffffffffffffffffffff168373ffffffffffffffffffffffffffffffffffffffff161415611796576040517f08c379a000000000000000000000000000000000000000000000000000000000815260040161178d90612b7b565b60405180910390fd5b80600560008573ffffffffffffffffffffffffffffffffffffffff1673ffffffffffffffffffffffffffffffffffffffff16815260200190815260200160002060008473ffffffffffffffffffffffffffffffffffffffff1673ffffffffffffffffffffffffffffffffffffffff16815260200190815260200160002060006101000a81548160ff0219169083151502179055508173ffffffffffffffffffffffffffffffffffffffff168373ffffffffffffffffffffffffffffffffffffffff167f17307eab39ab6107e8899845ad3d59bd9653f200f220920489ca2b5937696c31836040516118879190612a80565b60405180910390a3505050565b61189f8484846112e0565b6118ab84848484611d21565b6118ea576040517f08c379a00000000000000000000000000000000000000000000000000000000081526004016118e190612afb565b60405180910390fd5b50505050565b606060405180602001604052806000815250905090565b60606119128261113f565b600061191c6118f0565b9050600081511161193c5760405180602001604052806000815250611967565b8061194684611547565b6040516020016119579291906128c8565b6040516020818303038152906040525b915050919050565b600081600001549050919050565b606060008251905060008114156119a65760405180602001604052806000815250915050611b36565b600060036002836119b79190612d44565b6119c19190612d9a565b60046119cd9190612dcb565b905060006020826119de9190612d44565b67ffffffffffffffff811115611a1d577f4e487b7100000000000000000000000000000000000000000000000000000000600052604160045260246000fd5b6040519080825280601f01601f191660200182016040528015611a4f5781602001600182028036833780820191505090505b5090506000604051806060016040528060408152602001613611604091399050600181016020830160005b86811015611af35760038101905062ffffff818a015116603f8160121c168401518060081b905060ff603f83600c1c1686015116810190508060081b905060ff603f8360061c1686015116810190508060081b905060ff603f831686015116810190508060e01b90508084526004840193505050611a7a565b506003860660018114611b0d5760028114611b1d57611b28565b613d3d60f01b6002830352611b28565b603d60f81b60018303525b508484525050819450505050505b919050565b611b55828260405180602001604052806000815250611eb8565b5050565b611b6282611cab565b611ba1576040517f08c379a0000000000000000000000000000000000000000000000000000000008152600401611b9890612bbb565b60405180910390fd5b80600660008481526020019081526020016000209080519060200190611bc8929190612110565b505050565b6001816000016000828254019250508190555050565b611c7d838383604051602401611bfb93929190612abd565b6040516020818303038152906040527fe3849f79000000000000000000000000000000000000000000000000000000007bffffffffffffffffffffffffffffffffffffffffffffffffffffffff19166020820180517bffffffffffffffffffffffffffffffffffffffffffffffffffffffff8381831617835250505050611c82565b505050565b60008151905060006a636f6e736f6c652e6c6f679050602083016000808483855afa5050505050565b60008073ffffffffffffffffffffffffffffffffffffffff166002600084815260200190815260200160002060009054906101000a900473ffffffffffffffffffffffffffffffffffffffff1673ffffffffffffffffffffffffffffffffffffffff1614159050919050565b505050565b505050565b6000611d428473ffffffffffffffffffffffffffffffffffffffff16611f13565b15611eab578373ffffffffffffffffffffffffffffffffffffffff1663150b7a02611d6b61118a565b8786866040518563ffffffff1660e01b8152600401611d8d9493929190612a34565b602060405180830381600087803b158015611da757600080fd5b505af1925050508015611dd857506040513d601f19601f82011682018060405250810190611dd59190612454565b60015b611e5b573d8060008114611e08576040519150601f19603f3d011682016040523d82523d6000602084013e611e0d565b606091505b50600081511415611e53576040517f08c379a0000000000000000000000000000000000000000000000000000000008152600401611e4a90612afb565b60405180910390fd5b805181602001fd5b63150b7a0260e01b7bffffffffffffffffffffffffffffffffffffffffffffffffffffffff1916817bffffffffffffffffffffffffffffffffffffffffffffffffffffffff191614915050611eb0565b600190505b949350505050565b611ec28383611f36565b611ecf6000848484611d21565b611f0e576040517f08c379a0000000000000000000000000000000000000000000000000000000008152600401611f0590612afb565b60405180910390fd5b505050565b6000808273ffffffffffffffffffffffffffffffffffffffff163b119050919050565b600073ffffffffffffffffffffffffffffffffffffffff168273ffffffffffffffffffffffffffffffffffffffff161415611fa6576040517f08c379a0000000000000000000000000000000000000000000000000000000008152600401611f9d90612bfb565b60405180910390fd5b611faf81611cab565b15611fef576040517f08c379a0000000000000000000000000000000000000000000000000000000008152600401611fe690612b3b565b60405180910390fd5b611ffb60008383611d17565b6001600360008473ffffffffffffffffffffffffffffffffffffffff1673ffffffffffffffffffffffffffffffffffffffff168152602001908152602001600020600082825461204b9190612d44565b92505081905550816002600083815260200190815260200160002060006101000a81548173ffffffffffffffffffffffffffffffffffffffff021916908373ffffffffffffffffffffffffffffffffffffffff160217905550808273ffffffffffffffffffffffffffffffffffffffff16600073ffffffffffffffffffffffffffffffffffffffff167fddf252ad1be2c89b69c2b068fc378daa952ba7f163c4a11628f55a4df523b3ef60405160405180910390a461210c60008383611d1c565b5050565b82805461211c90612f0f565b90600052602060002090601f01602090048101928261213e5760008555612185565b82601f1061215757805160ff1916838001178555612185565b82800160010185558215612185579182015b82811115612184578251825591602001919060010190612169565b5b5090506121929190612196565b5090565b5b808211156121af576000816000905550600101612197565b5090565b60006121c66121c184612cbb565b612c96565b9050828152602081018484840111156121de57600080fd5b6121e9848285612ecd565b509392505050565b6000813590506122008161358f565b92915050565b600081359050612215816135a6565b92915050565b60008135905061222a816135bd565b92915050565b60008151905061223f816135bd565b92915050565b600082601f83011261225657600080fd5b81356122668482602086016121b3565b91505092915050565b60008135905061227e816135d4565b92915050565b60006020828403121561229657600080fd5b60006122a4848285016121f1565b91505092915050565b600080604083850312156122c057600080fd5b60006122ce858286016121f1565b92505060206122df858286016121f1565b9150509250929050565b6000806000606084860312156122fe57600080fd5b600061230c868287016121f1565b935050602061231d868287016121f1565b925050604061232e8682870161226f565b9150509250925092565b6000806000806080858703121561234e57600080fd5b600061235c878288016121f1565b945050602061236d878288016121f1565b935050604061237e8782880161226f565b925050606085013567ffffffffffffffff81111561239b57600080fd5b6123a787828801612245565b91505092959194509250565b600080604083850312156123c657600080fd5b60006123d4858286016121f1565b92505060206123e585828601612206565b9150509250929050565b6000806040838503121561240257600080fd5b6000612410858286016121f1565b92505060206124218582860161226f565b9150509250929050565b60006020828403121561243d57600080fd5b600061244b8482850161221b565b91505092915050565b60006020828403121561246657600080fd5b600061247484828501612230565b91505092915050565b60006020828403121561248f57600080fd5b600061249d8482850161226f565b91505092915050565b6124af81612e59565b82525050565b6124be81612e6b565b82525050565b60006124cf82612d01565b6124d98185612d17565b93506124e9818560208601612edc565b6124f2816130a8565b840191505092915050565b600061250882612d0c565b6125128185612d28565b9350612522818560208601612edc565b61252b816130a8565b840191505092915050565b600061254182612d0c565b61254b8185612d39565b935061255b818560208601612edc565b80840191505092915050565b6000815461257481612f0f565b61257e8186612d39565b9450600182166000811461259957600181146125aa576125dd565b60ff198316865281860193506125dd565b6125b385612cec565b60005b838110156125d5578154818901526001820191506020810190506125b6565b838801955050505b50505092915050565b60006125f3603283612d28565b91506125fe826130b9565b604082019050919050565b6000612616602583612d28565b915061262182613108565b604082019050919050565b6000612639601c83612d28565b915061264482613157565b602082019050919050565b600061265c600a83612d39565b915061266782613180565b600a82019050919050565b600061267f602483612d28565b915061268a826131a9565b604082019050919050565b60006126a2601983612d28565b91506126ad826131f8565b602082019050919050565b60006126c5606383612d39565b91506126d082613221565b606382019050919050565b60006126e8600b83612d39565b91506126f3826132bc565b600b82019050919050565b600061270b600d83612d39565b9150612716826132e5565b600d82019050919050565b600061272e602983612d28565b91506127398261330e565b604082019050919050565b6000612751602e83612d28565b915061275c8261335d565b604082019050919050565b6000612774600283612d39565b915061277f826133ac565b600282019050919050565b6000612797603e83612d28565b91506127a2826133d5565b604082019050919050565b60006127ba602083612d28565b91506127c582613424565b602082019050919050565b60006127dd600a83612d39565b91506127e88261344d565b600a82019050919050565b6000612800601883612d28565b915061280b82613476565b602082019050919050565b6000612823602183612d28565b915061282e8261349f565b604082019050919050565b6000612846600a83612d39565b9150612851826134ee565b600a82019050919050565b6000612869601d83612d39565b915061287482613517565b601d82019050919050565b600061288c602e83612d28565b915061289782613540565b604082019050919050565b6128ab81612ec3565b82525050565b60006128bd8284612536565b915081905092915050565b60006128d48285612536565b91506128e08284612536565b91508190509392505050565b60006128f88286612536565b91506129048285612536565b91506129108284612536565b9150819050949350505050565b60006129298285612567565b91506129358284612536565b9150612940826126fe565b91508190509392505050565b60006129578261264f565b91506129638284612536565b915081905092915050565b6000612979826126db565b91506129858284612536565b915081905092915050565b600061299b826127d0565b91506129a78285612536565b91506129b2826126b8565b91506129be8284612536565b91506129c982612767565b91508190509392505050565b60006129e082612839565b91506129ec8284612536565b915081905092915050565b6000612a028261285c565b9150612a0e8284612536565b915081905092915050565b6000602082019050612a2e60008301846124a6565b92915050565b6000608082019050612a4960008301876124a6565b612a5660208301866124a6565b612a6360408301856128a2565b8181036060830152612a7581846124c4565b905095945050505050565b6000602082019050612a9560008301846124b5565b92915050565b60006020820190508181036000830152612ab581846124fd565b905092915050565b60006060820190508181036000830152612ad781866124fd565b9050612ae660208301856128a2565b612af360408301846124a6565b949350505050565b60006020820190508181036000830152612b14816125e6565b9050919050565b60006020820190508181036000830152612b3481612609565b9050919050565b60006020820190508181036000830152612b548161262c565b9050919050565b60006020820190508181036000830152612b7481612672565b9050919050565b60006020820190508181036000830152612b9481612695565b9050919050565b60006020820190508181036000830152612bb481612721565b9050919050565b60006020820190508181036000830152612bd481612744565b9050919050565b60006020820190508181036000830152612bf48161278a565b9050919050565b60006020820190508181036000830152612c14816127ad565b9050919050565b60006020820190508181036000830152612c34816127f3565b9050919050565b60006020820190508181036000830152612c5481612816565b9050919050565b60006020820190508181036000830152612c748161287f565b9050919050565b6000602082019050612c9060008301846128a2565b92915050565b6000612ca0612cb1565b9050612cac8282612f41565b919050565b6000604051905090565b600067ffffffffffffffff821115612cd657612cd5613079565b5b612cdf826130a8565b9050602081019050919050565b60008190508160005260206000209050919050565b600081519050919050565b600081519050919050565b600082825260208201905092915050565b600082825260208201905092915050565b600081905092915050565b6000612d4f82612ec3565b9150612d5a83612ec3565b9250827fffffffffffffffffffffffffffffffffffffffffffffffffffffffffffffffff03821115612d8f57612d8e612fec565b5b828201905092915050565b6000612da582612ec3565b9150612db083612ec3565b925082612dc057612dbf61301b565b5b828204905092915050565b6000612dd682612ec3565b9150612de183612ec3565b9250817fffffffffffffffffffffffffffffffffffffffffffffffffffffffffffffffff0483118215151615612e1a57612e19612fec565b5b828202905092915050565b6000612e3082612ec3565b9150612e3b83612ec3565b925082821015612e4e57612e4d612fec565b5b828203905092915050565b6000612e6482612ea3565b9050919050565b60008115159050919050565b60007fffffffff0000000000000000000000000000000000000000000000000000000082169050919050565b600073ffffffffffffffffffffffffffffffffffffffff82169050919050565b6000819050919050565b82818337600083830152505050565b60005b83811015612efa578082015181840152602081019050612edf565b83811115612f09576000848401525b50505050565b60006002820490506001821680612f2757607f821691505b60208210811415612f3b57612f3a61304a565b5b50919050565b612f4a826130a8565b810181811067ffffffffffffffff82111715612f6957612f68613079565b5b80604052505050565b6000612f7d82612ec3565b91507fffffffffffffffffffffffffffffffffffffffffffffffffffffffffffffffff821415612fb057612faf612fec565b5b600182019050919050565b6000612fc682612ec3565b9150612fd183612ec3565b925082612fe157612fe061301b565b5b828206905092915050565b7f4e487b7100000000000000000000000000000000000000000000000000000000600052601160045260246000fd5b7f4e487b7100000000000000000000000000000000000000000000000000000000600052601260045260246000fd5b7f4e487b7100000000000000000000000000000000000000000000000000000000600052602260045260246000fd5b7f4e487b7100000000000000000000000000000000000000000000000000000000600052604160045260246000fd5b6000601f19601f8301169050919050565b7f4552433732313a207472616e7366657220746f206e6f6e20455243373231526560008201527f63656976657220696d706c656d656e7465720000000000000000000000000000602082015250565b7f4552433732313a207472616e736665722066726f6d20696e636f72726563742060008201527f6f776e6572000000000000000000000000000000000000000000000000000000602082015250565b7f4552433732313a20746f6b656e20616c7265616479206d696e74656400000000600082015250565b7f54484952445f574f524400000000000000000000000000000000000000000000600082015250565b7f4552433732313a207472616e7366657220746f20746865207a65726f2061646460008201527f7265737300000000000000000000000000000000000000000000000000000000602082015250565b7f4552433732313a20617070726f766520746f2063616c6c657200000000000000600082015250565b7f222c20226465736372697074696f6e223a20224120686967686c79206163636c60008201527f61696d656420636f6c6c656374696f6e206f6620737175617265732e222c202260208201527f696d616765223a2022646174613a696d6167652f7376672b786d6c3b6261736560408201527f36342c0000000000000000000000000000000000000000000000000000000000606082015250565b7f5345434f4e445f574f5244000000000000000000000000000000000000000000600082015250565b7f3c2f746578743e3c2f7376673e00000000000000000000000000000000000000600082015250565b7f4552433732313a2061646472657373207a65726f206973206e6f74206120766160008201527f6c6964206f776e65720000000000000000000000000000000000000000000000602082015250565b7f45524337323155524953746f726167653a2055524920736574206f66206e6f6e60008201527f6578697374656e7420746f6b656e000000000000000000000000000000000000602082015250565b7f227d000000000000000000000000000000000000000000000000000000000000600082015250565b7f4552433732313a20617070726f76652063616c6c6572206973206e6f7420746f60008201527f6b656e206f776e6572206e6f7220617070726f76656420666f7220616c6c0000602082015250565b7f4552433732313a206d696e7420746f20746865207a65726f2061646472657373600082015250565b7f7b226e616d65223a202200000000000000000000000000000000000000000000600082015250565b7f4552433732313a20696e76616c696420746f6b656e2049440000000000000000600082015250565b7f4552433732313a20617070726f76616c20746f2063757272656e74206f776e6560008201527f7200000000000000000000000000000000000000000000000000000000000000602082015250565b7f46495253545f574f524400000000000000000000000000000000000000000000600082015250565b7f646174613a6170706c69636174696f6e2f6a736f6e3b6261736536342c000000600082015250565b7f4552433732313a2063616c6c6572206973206e6f7420746f6b656e206f776e6560008201527f72206e6f7220617070726f766564000000000000000000000000000000000000602082015250565b61359881612e59565b81146135a357600080fd5b50565b6135af81612e6b565b81146135ba57600080fd5b50565b6135c681612e77565b81146135d157600080fd5b50565b6135dd81612ec3565b81146135e857600080fd5b5056fe416e204e465420772f20494420257320686173206265656e206d696e74656420746f2025734142434445464748494a4b4c4d4e4f505152535455565758595a6162636465666768696a6b6c6d6e6f707172737475767778797a303132333435363738392b2fa2646970667358221220e500f939d82fbbfdebcf61a77b564ae5bb9598851e0f69c316aae7bf9b6beb5664736f6c634300080100333c73766720786d6c6e733d27687474703a2f2f7777772e77332e6f72672f323030302f73766727207072657365727665417370656374526174696f3d27784d696e594d696e206d656574272076696577426f783d273020302033353020333530273e3c7374796c653e2e62617365207b2066696c6c3a2077686974653b20666f6e742d66616d696c793a2073657269663b20666f6e742d73697a653a20323470783b207d3c2f7374796c653e3c726563742077696474683d273130302527206865696768743d2731303025272066696c6c3d27626c61636b27202f3e3c7465787420783d273530252720793d273530252720636c6173733d27626173652720646f6d696e616e742d626173656c696e653d276d6964646c652720746578742d616e63686f723d276d6964646c65273e",
    "linkReferences": {},
    "deployedLinkReferences": {}
}